{
  "_format": "hh-sol-artifact-1",
  "contractName": "CertificateVerification",
  "sourceName": "contracts/CertificateVerification.sol",
  "abi": [
    {
      "inputs": [],
      "stateMutability": "nonpayable",
      "type": "constructor"
    },
    {
      "inputs": [
        {
          "internalType": "string",
          "name": "_id",
          "type": "string"
        }
      ],
      "name": "getCertificate",
      "outputs": [
        {
          "components": [
            {
              "internalType": "address",
              "name": "issuer",
              "type": "address"
            },
            {
              "internalType": "string",
              "name": "recipientName",
              "type": "string"
            },
            {
              "internalType": "string",
              "name": "recipientAadhaar",
              "type": "string"
            },
            {
              "internalType": "string",
              "name": "imgHash",
              "type": "string"
            },
            {
              "internalType": "uint256",
              "name": "issueDate",
              "type": "uint256"
            },
            {
              "internalType": "uint256",
              "name": "creationDate",
              "type": "uint256"
            }
          ],
          "internalType": "struct CertificateVerification.Certificate",
          "name": "",
          "type": "tuple"
        }
      ],
      "stateMutability": "view",
      "type": "function"
    },
    {
      "inputs": [
        {
          "internalType": "string",
          "name": "_id",
          "type": "string"
        },
        {
          "internalType": "string",
          "name": "_recipientName",
          "type": "string"
        },
        {
          "internalType": "string",
          "name": "_recipientAadhaar",
          "type": "string"
        },
        {
          "internalType": "string",
          "name": "_imgHash",
          "type": "string"
        },
        {
          "internalType": "uint256",
          "name": "_issueDate",
          "type": "uint256"
        }
      ],
      "name": "issueCertificate",
      "outputs": [],
      "stateMutability": "nonpayable",
      "type": "function"
    },
    {
      "inputs": [],
      "name": "owner",
      "outputs": [
        {
          "internalType": "address payable",
          "name": "",
          "type": "address"
        }
      ],
      "stateMutability": "view",
      "type": "function"
    }
  ],
  "bytecode": "0x608060405234801561001057600080fd5b50600180546001600160a01b031916331790556108ee806100326000396000f3fe608060405234801561001057600080fd5b50600436106100415760003560e01c80635e2213f7146100465780638da5cb5b1461005b578063ed0f2e751461008b575b600080fd5b610059610054366004610688565b6100ab565b005b60015461006e906001600160a01b031681565b6040516001600160a01b0390911681526020015b60405180910390f35b61009e61009936600461073d565b610280565b60405161008291906107d6565b6001546001600160a01b031633146101225760405162461bcd60e51b815260206004820152602f60248201527f4f6e6c792074686520636f6e7472616374206f776e65722063616e206973737560448201526e65206365727469666963617465732160881b60648201526084015b60405180910390fd5b6040805160c0810182523381526020810186905280820185905260608101849052608081018390524260a08201529051600090610160908890610861565b9081526020016040518091039020600501546000146101d25760405162461bcd60e51b815260206004820152602860248201527f63657274696669636174652077697468207468617420696420616c7265616479604482015267206578697374732160c01b6064820152608401610119565b806000876040516101e39190610861565b90815260405160209181900382019020825181546001600160a01b0319166001600160a01b0390911617815582820151805191926102299260018501929091019061054c565b506040820151805161024591600284019160209091019061054c565b506060820151805161026191600384019160209091019061054c565b506080820151600482015560a090910151600590910155505050505050565b6102c26040518060c0016040528060006001600160a01b0316815260200160608152602001606081526020016060815260200160008152602001600081525090565b6000826040516102d29190610861565b908152602001604051809103902060050154600014156103425760405162461bcd60e51b815260206004820152602560248201527f63616e6e6f742066696e64206365727469666963617465207769746820746861604482015264742069642160d81b6064820152608401610119565b6000826040516103529190610861565b90815260408051918290036020908101832060c0840190925281546001600160a01b031683526001820180549184019161038b9061087d565b80601f01602080910402602001604051908101604052809291908181526020018280546103b79061087d565b80156104045780601f106103d957610100808354040283529160200191610404565b820191906000526020600020905b8154815290600101906020018083116103e757829003601f168201915b5050505050815260200160028201805461041d9061087d565b80601f01602080910402602001604051908101604052809291908181526020018280546104499061087d565b80156104965780601f1061046b57610100808354040283529160200191610496565b820191906000526020600020905b81548152906001019060200180831161047957829003601f168201915b505050505081526020016003820180546104af9061087d565b80601f01602080910402602001604051908101604052809291908181526020018280546104db9061087d565b80156105285780601f106104fd57610100808354040283529160200191610528565b820191906000526020600020905b81548152906001019060200180831161050b57829003601f168201915b50505050508152602001600482015481526020016005820154815250509050919050565b8280546105589061087d565b90600052602060002090601f01602090048101928261057a57600085556105c0565b82601f1061059357805160ff19168380011785556105c0565b828001600101855582156105c0579182015b828111156105c05782518255916020019190600101906105a5565b506105cc9291506105d0565b5090565b5b808211156105cc57600081556001016105d1565b634e487b7160e01b600052604160045260246000fd5b600082601f83011261060c57600080fd5b813567ffffffffffffffff80821115610627576106276105e5565b604051601f8301601f19908116603f0116810190828211818310171561064f5761064f6105e5565b8160405283815286602085880101111561066857600080fd5b836020870160208301376000602085830101528094505050505092915050565b600080600080600060a086880312156106a057600080fd5b853567ffffffffffffffff808211156106b857600080fd5b6106c489838a016105fb565b965060208801359150808211156106da57600080fd5b6106e689838a016105fb565b955060408801359150808211156106fc57600080fd5b61070889838a016105fb565b9450606088013591508082111561071e57600080fd5b5061072b888289016105fb565b95989497509295608001359392505050565b60006020828403121561074f57600080fd5b813567ffffffffffffffff81111561076657600080fd5b610772848285016105fb565b949350505050565b60005b8381101561079557818101518382015260200161077d565b838111156107a4576000848401525b50505050565b600081518084526107c281602086016020860161077a565b601f01601f19169290920160200192915050565b602080825282516001600160a01b03168282015282015160c0604083015260009061080460e08401826107aa565b90506040840151601f198085840301606086015261082283836107aa565b925060608601519150808584030160808601525061084082826107aa565b915050608084015160a084015260a084015160c08401528091505092915050565b6000825161087381846020870161077a565b9190910192915050565b600181811c9082168061089157607f821691505b602082108114156108b257634e487b7160e01b600052602260045260246000fd5b5091905056fea2646970667358221220d4ec1a541893166a2530ccf9f2ec0681f874f9eb1055fb7f7b4c05419240869964736f6c63430008090033",
  "linkReferences": {},
  "deployedLinkReferences": {}
}