{
  "_format": "hh-sol-artifact-1",
  "contractName": "CertificateVerification",
  "sourceName": "contracts/CertificateVerify.sol",
  "abi": [
    {
      "inputs": [],
      "stateMutability": "nonpayable",
      "type": "constructor"
    },
    {
      "anonymous": false,
      "inputs": [
        {
          "indexed": true,
          "internalType": "address",
          "name": "issuer",
          "type": "address"
        },
        {
          "indexed": false,
          "internalType": "uint256",
          "name": "_issueDate",
          "type": "uint256"
        }
      ],
      "name": "IssuedCertificate",
      "type": "event"
    },
    {
      "inputs": [
        {
          "internalType": "address payable",
          "name": "_wallet",
          "type": "address"
        }
      ],
      "name": "addWhitelistWallet",
      "outputs": [],
      "stateMutability": "nonpayable",
      "type": "function"
    },
    {
      "inputs": [
        {
          "internalType": "string",
          "name": "_id",
          "type": "string"
        }
      ],
      "name": "getCertificate",
      "outputs": [
        {
          "components": [
            {
              "internalType": "address",
              "name": "issuer",
              "type": "address"
            },
            {
              "internalType": "string",
              "name": "recipientName",
              "type": "string"
            },
            {
              "internalType": "string",
              "name": "recipientAadhaar",
              "type": "string"
            },
            {
              "internalType": "string",
              "name": "imgHash",
              "type": "string"
            },
            {
              "internalType": "uint256",
              "name": "issueDate",
              "type": "uint256"
            },
            {
              "internalType": "uint256",
              "name": "creationDate",
              "type": "uint256"
            }
          ],
          "internalType": "struct CertificateVerification.Certificate",
          "name": "",
          "type": "tuple"
        }
      ],
      "stateMutability": "view",
      "type": "function"
    },
    {
      "inputs": [
        {
          "internalType": "string",
          "name": "_id",
          "type": "string"
        },
        {
          "internalType": "string",
          "name": "_recipientName",
          "type": "string"
        },
        {
          "internalType": "string",
          "name": "_recipientAadhaar",
          "type": "string"
        },
        {
          "internalType": "string",
          "name": "_imgHash",
          "type": "string"
        },
        {
          "internalType": "uint256",
          "name": "_issueDate",
          "type": "uint256"
        }
      ],
      "name": "issueCertificate",
      "outputs": [],
      "stateMutability": "nonpayable",
      "type": "function"
    },
    {
      "inputs": [],
      "name": "owner",
      "outputs": [
        {
          "internalType": "address payable",
          "name": "",
          "type": "address"
        }
      ],
      "stateMutability": "view",
      "type": "function"
    },
    {
      "inputs": [
        {
          "internalType": "address payable",
          "name": "_wallet",
          "type": "address"
        }
      ],
      "name": "removeWhitelistWallet",
      "outputs": [],
      "stateMutability": "nonpayable",
      "type": "function"
    },
    {
      "inputs": [
        {
          "internalType": "address",
          "name": "",
          "type": "address"
        }
      ],
      "name": "whitelist",
      "outputs": [
        {
          "internalType": "bool",
          "name": "",
          "type": "bool"
        }
      ],
      "stateMutability": "view",
      "type": "function"
    }
  ],
  "bytecode": "0x608060405234801561001057600080fd5b50336000818152600260205260409020805460ff1916600190811790915580546001600160a01b0319169091179055610a148061004e6000396000f3fe608060405234801561001057600080fd5b50600436106100625760003560e01c80635e2213f7146100675780638da5cb5b1461007c5780639b19251a146100ac578063ade4cffe146100df578063dcb1c2e5146100f2578063ed0f2e7514610121575b600080fd5b61007a610075366004610772565b610141565b005b60015461008f906001600160a01b031681565b6040516001600160a01b0390911681526020015b60405180910390f35b6100cf6100ba36600461083f565b60026020526000908152604090205460ff1681565b60405190151581526020016100a3565b61007a6100ed36600461083f565b610317565b61007a61010036600461083f565b6001600160a01b03166000908152600260205260409020805460ff19169055565b61013461012f366004610863565b61038a565b6040516100a391906108fc565b3360009081526002602052604090205460ff166101985760405162461bcd60e51b815260206004820152601060248201526f1393d517d25397d5d2125511531254d560821b60448201526064015b60405180910390fd5b6000856040516101a89190610987565b9081526020016040518091039020600501546000146101fa5760405162461bcd60e51b815260206004820152600e60248201526d414c52454144595f45584953545360901b604482015260640161018f565b60006040518060c00160405280336001600160a01b03168152602001868152602001858152602001848152602001838152602001428152509050806000876040516102459190610987565b90815260405160209181900382019020825181546001600160a01b0319166001600160a01b03909116178155828201518051919261028b92600185019290910190610636565b50604082015180516102a7916002840191602090910190610636565b50606082015180516102c3916003840191602090910190610636565b506080820151600482015560a09091015160059091015560405142815233907f5fb93e2a61b1067e4dd6c6eee9be6767ea56b2308947bef9205a58d663d4166b9060200160405180910390a2505050505050565b6001546001600160a01b031633146103665760405162461bcd60e51b815260206004820152601260248201527113d3931657d3d5d3915497d0d05397d0511160721b604482015260640161018f565b6001600160a01b03166000908152600260205260409020805460ff19166001179055565b6103cc6040518060c0016040528060006001600160a01b0316815260200160608152602001606081526020016060815260200160008152602001600081525090565b6000826040516103dc9190610987565b9081526020016040518091039020600501546000141561042c5760405162461bcd60e51b815260206004820152600b60248201526a10d0539393d517d192539160aa1b604482015260640161018f565b60008260405161043c9190610987565b90815260408051918290036020908101832060c0840190925281546001600160a01b0316835260018201805491840191610475906109a3565b80601f01602080910402602001604051908101604052809291908181526020018280546104a1906109a3565b80156104ee5780601f106104c3576101008083540402835291602001916104ee565b820191906000526020600020905b8154815290600101906020018083116104d157829003601f168201915b50505050508152602001600282018054610507906109a3565b80601f0160208091040260200160405190810160405280929190818152602001828054610533906109a3565b80156105805780601f1061055557610100808354040283529160200191610580565b820191906000526020600020905b81548152906001019060200180831161056357829003601f168201915b50505050508152602001600382018054610599906109a3565b80601f01602080910402602001604051908101604052809291908181526020018280546105c5906109a3565b80156106125780601f106105e757610100808354040283529160200191610612565b820191906000526020600020905b8154815290600101906020018083116105f557829003601f168201915b50505050508152602001600482015481526020016005820154815250509050919050565b828054610642906109a3565b90600052602060002090601f01602090048101928261066457600085556106aa565b82601f1061067d57805160ff19168380011785556106aa565b828001600101855582156106aa579182015b828111156106aa57825182559160200191906001019061068f565b506106b69291506106ba565b5090565b5b808211156106b657600081556001016106bb565b634e487b7160e01b600052604160045260246000fd5b600082601f8301126106f657600080fd5b813567ffffffffffffffff80821115610711576107116106cf565b604051601f8301601f19908116603f01168101908282118183101715610739576107396106cf565b8160405283815286602085880101111561075257600080fd5b836020870160208301376000602085830101528094505050505092915050565b600080600080600060a0868803121561078a57600080fd5b853567ffffffffffffffff808211156107a257600080fd5b6107ae89838a016106e5565b965060208801359150808211156107c457600080fd5b6107d089838a016106e5565b955060408801359150808211156107e657600080fd5b6107f289838a016106e5565b9450606088013591508082111561080857600080fd5b50610815888289016106e5565b95989497509295608001359392505050565b6001600160a01b038116811461083c57600080fd5b50565b60006020828403121561085157600080fd5b813561085c81610827565b9392505050565b60006020828403121561087557600080fd5b813567ffffffffffffffff81111561088c57600080fd5b610898848285016106e5565b949350505050565b60005b838110156108bb5781810151838201526020016108a3565b838111156108ca576000848401525b50505050565b600081518084526108e88160208601602086016108a0565b601f01601f19169290920160200192915050565b602080825282516001600160a01b03168282015282015160c0604083015260009061092a60e08401826108d0565b90506040840151601f198085840301606086015261094883836108d0565b925060608601519150808584030160808601525061096682826108d0565b915050608084015160a084015260a084015160c08401528091505092915050565b600082516109998184602087016108a0565b9190910192915050565b600181811c908216806109b757607f821691505b602082108114156109d857634e487b7160e01b600052602260045260246000fd5b5091905056fea264697066735822122025e135a58427c6cab2f9cc5492f3a12f345bb9bfed99692dc4f2299be25bef6864736f6c63430008090033",
  "linkReferences": {},
  "deployedLinkReferences": {}
}