{
  "_format": "hh-sol-artifact-1",
  "contractName": "CertificateVerification",
  "sourceName": "contracts/CertificateVerify.sol",
  "abi": [
    {
      "inputs": [],
      "stateMutability": "nonpayable",
      "type": "constructor"
    },
    {
      "anonymous": false,
      "inputs": [
        {
          "indexed": true,
          "internalType": "address",
          "name": "issuer",
          "type": "address"
        },
        {
          "indexed": false,
          "internalType": "uint256",
          "name": "_issueDate",
          "type": "uint256"
        }
      ],
      "name": "IssuedCertificate",
      "type": "event"
    },
    {
      "inputs": [
        {
          "internalType": "address payable",
          "name": "_wallet",
          "type": "address"
        }
      ],
      "name": "addWhitelistWallet",
      "outputs": [],
      "stateMutability": "nonpayable",
      "type": "function"
    },
    {
      "inputs": [
        {
          "internalType": "string",
          "name": "_id",
          "type": "string"
        }
      ],
      "name": "getCertificate",
      "outputs": [
        {
          "components": [
            {
              "internalType": "address",
              "name": "issuer",
              "type": "address"
            },
            {
              "internalType": "string",
              "name": "recipientName",
              "type": "string"
            },
            {
              "internalType": "string",
              "name": "recipientAadhaar",
              "type": "string"
            },
            {
              "internalType": "string",
              "name": "imgHash",
              "type": "string"
            },
            {
              "internalType": "uint256",
              "name": "issueDate",
              "type": "uint256"
            },
            {
              "internalType": "uint256",
              "name": "creationDate",
              "type": "uint256"
            }
          ],
          "internalType": "struct CertificateVerification.Certificate",
          "name": "",
          "type": "tuple"
        }
      ],
      "stateMutability": "view",
      "type": "function"
    },
    {
      "inputs": [
        {
          "internalType": "string",
          "name": "_id",
          "type": "string"
        },
        {
          "internalType": "string",
          "name": "_recipientName",
          "type": "string"
        },
        {
          "internalType": "string",
          "name": "_recipientAadhaar",
          "type": "string"
        },
        {
          "internalType": "string",
          "name": "_imgHash",
          "type": "string"
        },
        {
          "internalType": "uint256",
          "name": "_issueDate",
          "type": "uint256"
        }
      ],
      "name": "issueCertificate",
      "outputs": [],
      "stateMutability": "nonpayable",
      "type": "function"
    },
    {
      "inputs": [],
      "name": "owner",
      "outputs": [
        {
          "internalType": "address payable",
          "name": "",
          "type": "address"
        }
      ],
      "stateMutability": "view",
      "type": "function"
    },
    {
      "inputs": [
        {
          "internalType": "address payable",
          "name": "_wallet",
          "type": "address"
        }
      ],
      "name": "removeWhitelistWallet",
      "outputs": [],
      "stateMutability": "nonpayable",
      "type": "function"
    },
    {
      "inputs": [
        {
          "internalType": "address",
          "name": "",
          "type": "address"
        }
      ],
      "name": "whitelist",
      "outputs": [
        {
          "internalType": "bool",
          "name": "",
          "type": "bool"
        }
      ],
      "stateMutability": "view",
      "type": "function"
    }
  ],
  "bytecode": "0x608060405234801561001057600080fd5b50336000818152600260205260409020805460ff1916600190811790915580546001600160a01b03191690911790556109c28061004e6000396000f3fe608060405234801561001057600080fd5b50600436106100625760003560e01c80635e2213f7146100675780638da5cb5b1461007c5780639b19251a146100ac578063ade4cffe146100df578063dcb1c2e5146100f2578063ed0f2e7514610121575b600080fd5b61007a610075366004610720565b610141565b005b60015461008f906001600160a01b031681565b6040516001600160a01b0390911681526020015b60405180910390f35b6100cf6100ba3660046107ed565b60026020526000908152604090205460ff1681565b60405190151581526020016100a3565b61007a6100ed3660046107ed565b6102c5565b61007a6101003660046107ed565b6001600160a01b03166000908152600260205260409020805460ff19169055565b61013461012f366004610811565b610338565b6040516100a391906108aa565b6000856040516101519190610935565b9081526020016040518091039020600501546000146101a85760405162461bcd60e51b815260206004820152600e60248201526d414c52454144595f45584953545360901b60448201526064015b60405180910390fd5b60006040518060c00160405280336001600160a01b03168152602001868152602001858152602001848152602001838152602001428152509050806000876040516101f39190610935565b90815260405160209181900382019020825181546001600160a01b0319166001600160a01b039091161781558282015180519192610239926001850192909101906105e4565b50604082015180516102559160028401916020909101906105e4565b50606082015180516102719160038401916020909101906105e4565b506080820151600482015560a09091015160059091015560405142815233907f5fb93e2a61b1067e4dd6c6eee9be6767ea56b2308947bef9205a58d663d4166b9060200160405180910390a2505050505050565b6001546001600160a01b031633146103145760405162461bcd60e51b815260206004820152601260248201527113d3931657d3d5d3915497d0d05397d0511160721b604482015260640161019f565b6001600160a01b03166000908152600260205260409020805460ff19166001179055565b61037a6040518060c0016040528060006001600160a01b0316815260200160608152602001606081526020016060815260200160008152602001600081525090565b60008260405161038a9190610935565b908152602001604051809103902060050154600014156103da5760405162461bcd60e51b815260206004820152600b60248201526a10d0539393d517d192539160aa1b604482015260640161019f565b6000826040516103ea9190610935565b90815260408051918290036020908101832060c0840190925281546001600160a01b031683526001820180549184019161042390610951565b80601f016020809104026020016040519081016040528092919081815260200182805461044f90610951565b801561049c5780601f106104715761010080835404028352916020019161049c565b820191906000526020600020905b81548152906001019060200180831161047f57829003601f168201915b505050505081526020016002820180546104b590610951565b80601f01602080910402602001604051908101604052809291908181526020018280546104e190610951565b801561052e5780601f106105035761010080835404028352916020019161052e565b820191906000526020600020905b81548152906001019060200180831161051157829003601f168201915b5050505050815260200160038201805461054790610951565b80601f016020809104026020016040519081016040528092919081815260200182805461057390610951565b80156105c05780601f10610595576101008083540402835291602001916105c0565b820191906000526020600020905b8154815290600101906020018083116105a357829003601f168201915b50505050508152602001600482015481526020016005820154815250509050919050565b8280546105f090610951565b90600052602060002090601f0160209004810192826106125760008555610658565b82601f1061062b57805160ff1916838001178555610658565b82800160010185558215610658579182015b8281111561065857825182559160200191906001019061063d565b50610664929150610668565b5090565b5b808211156106645760008155600101610669565b634e487b7160e01b600052604160045260246000fd5b600082601f8301126106a457600080fd5b813567ffffffffffffffff808211156106bf576106bf61067d565b604051601f8301601f19908116603f011681019082821181831017156106e7576106e761067d565b8160405283815286602085880101111561070057600080fd5b836020870160208301376000602085830101528094505050505092915050565b600080600080600060a0868803121561073857600080fd5b853567ffffffffffffffff8082111561075057600080fd5b61075c89838a01610693565b9650602088013591508082111561077257600080fd5b61077e89838a01610693565b9550604088013591508082111561079457600080fd5b6107a089838a01610693565b945060608801359150808211156107b657600080fd5b506107c388828901610693565b95989497509295608001359392505050565b6001600160a01b03811681146107ea57600080fd5b50565b6000602082840312156107ff57600080fd5b813561080a816107d5565b9392505050565b60006020828403121561082357600080fd5b813567ffffffffffffffff81111561083a57600080fd5b61084684828501610693565b949350505050565b60005b83811015610869578181015183820152602001610851565b83811115610878576000848401525b50505050565b6000815180845261089681602086016020860161084e565b601f01601f19169290920160200192915050565b602080825282516001600160a01b03168282015282015160c060408301526000906108d860e084018261087e565b90506040840151601f19808584030160608601526108f6838361087e565b9250606086015191508085840301608086015250610914828261087e565b915050608084015160a084015260a084015160c08401528091505092915050565b6000825161094781846020870161084e565b9190910192915050565b600181811c9082168061096557607f821691505b6020821081141561098657634e487b7160e01b600052602260045260246000fd5b5091905056fea2646970667358221220893a26359b66d25cb273b1f2fc96afa283406e8fdf6f1fbde37a43b5b855e41364736f6c63430008090033",
  "linkReferences": {},
  "deployedLinkReferences": {}
}